{
  "contractName": "NFCVerification",
  "abi": [
    {
      "anonymous": false,
      "inputs": [
        {
          "indexed": true,
          "internalType": "string",
          "name": "productId",
          "type": "string"
        },
        {
          "indexed": false,
          "internalType": "string",
          "name": "passcode",
          "type": "string"
        },
        {
          "indexed": false,
          "internalType": "bool",
          "name": "verified",
          "type": "bool"
        }
      ],
      "name": "NFCScanned",
      "type": "event"
    },
    {
      "constant": false,
      "inputs": [
        {
          "internalType": "string",
          "name": "_productId",
          "type": "string"
        },
        {
          "internalType": "string",
          "name": "_passcode",
          "type": "string"
        }
      ],
      "name": "storeNFCData",
      "outputs": [],
      "payable": false,
      "stateMutability": "nonpayable",
      "type": "function"
    },
    {
      "constant": false,
      "inputs": [
        {
          "internalType": "string",
          "name": "_productId",
          "type": "string"
        },
        {
          "internalType": "string",
          "name": "_passcode",
          "type": "string"
        }
      ],
      "name": "verifyNFCData",
      "outputs": [
        {
          "internalType": "bool",
          "name": "",
          "type": "bool"
        }
      ],
      "payable": false,
      "stateMutability": "nonpayable",
      "type": "function"
    }
  ],
  "bytecode": "0x608060405234801561001057600080fd5b506109a7806100206000396000f3fe608060405234801561001057600080fd5b50600436106100365760003560e01c8063c27a55441461003b578063f7023378146101a5575b600080fd5b61018b6004803603604081101561005157600080fd5b810190808035906020019064010000000081111561006e57600080fd5b82018360208201111561008057600080fd5b803590602001918460018302840111640100000000831117156100a257600080fd5b91908080601f016020809104026020016040519081016040528093929190818152602001838380828437600081840152601f19601f8201169050808301925050505050505091929192908035906020019064010000000081111561010557600080fd5b82018360208201111561011757600080fd5b8035906020019184600183028401116401000000008311171561013957600080fd5b91908080601f016020809104026020016040519081016040528093929190818152602001838380828437600081840152601f19601f8201169050808301925050505050505091929192905050506102f7565b604051808215151515815260200191505060405180910390f35b6102f5600480360360408110156101bb57600080fd5b81019080803590602001906401000000008111156101d857600080fd5b8201836020820111156101ea57600080fd5b8035906020019184600183028401116401000000008311171561020c57600080fd5b91908080601f016020809104026020016040519081016040528093929190818152602001838380828437600081840152601f19601f8201169050808301925050505050505091929192908035906020019064010000000081111561026f57600080fd5b82018360208201111561028157600080fd5b803590602001918460018302840111640100000000831117156102a357600080fd5b91908080601f016020809104026020016040519081016040528093929190818152602001838380828437600081840152601f19601f8201169050808301925050505050505091929192905050506107dd565b005b60006103016108ac565b6000846040518082805190602001908083835b602083106103375780518252602082019150602081019050602083039250610314565b6001836020036101000a0380198251168184511680821785525050505050509050019150509081526020016040518091039020604051806060016040529081600082018054600181600116156101000203166002900480601f01602080910402602001604051908101604052809291908181526020018280546001816001161561010002031660029004801561040e5780601f106103e35761010080835404028352916020019161040e565b820191906000526020600020905b8154815290600101906020018083116103f157829003601f168201915b50505050508152602001600182018054600181600116156101000203166002900480601f0160208091040260200160405190810160405280929190818152602001828054600181600116156101000203166002900480156104b05780601f10610485576101008083540402835291602001916104b0565b820191906000526020600020905b81548152906001019060200180831161049357829003601f168201915b505050505081526020016002820154815250509050826040516020018082805190602001908083835b602083106104fc57805182526020820191506020810190506020830392506104d9565b6001836020036101000a0380198251168184511680821785525050505050509050019150506040516020818303038152906040528051906020012081600001516040516020018082805190602001908083835b60208310610572578051825260208201915060208101905060208303925061054f565b6001836020036101000a0380198251168184511680821785525050505050509050019150506040516020818303038152906040528051906020012014156106c757836040518082805190602001908083835b602083106105e757805182526020820191506020810190506020830392506105c4565b6001836020036101000a03801982511681845116808217855250505050505090500191505060405180910390207f102ac26018fec286849eb565e0dd6d2f424caa8a56e7d8009b994f89f403b702846001604051808060200183151515158152602001828103825284818151815260200191508051906020019080838360005b83811015610682578082015181840152602081019050610667565b50505050905090810190601f1680156106af5780820380516001836020036101000a031916815260200191505b50935050505060405180910390a260019150506107d7565b836040518082805190602001908083835b602083106106fb57805182526020820191506020810190506020830392506106d8565b6001836020036101000a03801982511681845116808217855250505050505090500191505060405180910390207f102ac26018fec286849eb565e0dd6d2f424caa8a56e7d8009b994f89f403b702846000604051808060200183151515158152602001828103825284818151815260200191508051906020019080838360005b8381101561079657808201518184015260208101905061077b565b50505050905090810190601f1680156107c35780820380516001836020036101000a031916815260200191505b50935050505060405180910390a260009150505b92915050565b6040518060600160405280828152602001838152602001428152506000836040518082805190602001908083835b6020831061082e578051825260208201915060208101905060208303925061080b565b6001836020036101000a0380198251168184511680821785525050505050509050019150509081526020016040518091039020600082015181600001908051906020019061087d9291906108cd565b50602082015181600101908051906020019061089a9291906108cd565b50604082015181600201559050505050565b60405180606001604052806060815260200160608152602001600081525090565b828054600181600116156101000203166002900490600052602060002090601f016020900481019282601f1061090e57805160ff191683800117855561093c565b8280016001018555821561093c579182015b8281111561093b578251825591602001919060010190610920565b5b509050610949919061094d565b5090565b61096f91905b8082111561096b576000816000905550600101610953565b5090565b9056fea265627a7a72315820d7b8bdf04e803571ba14825802de5b9d875f0fe0e6fec0b311f485529612affa64736f6c63430005100032",
  "source": "// SPDX-License-Identifier: MIT\r\npragma solidity ^0.5.16;\r\n\r\ncontract NFCVerification {\r\n    struct NFCData {\r\n        string passcode;\r\n        string productId;\r\n        uint256 timestamp;\r\n    }\r\n\r\n    mapping(string => NFCData) private records;\r\n\r\n    event NFCScanned(string indexed productId, string passcode, bool verified);\r\n\r\n    function storeNFCData(string memory _productId, string memory _passcode) public {\r\n        records[_productId] = NFCData(_passcode, _productId, now); // 'now' is used in older Solidity versions\r\n    }\r\n\r\n    function verifyNFCData(string memory _productId, string memory _passcode) public returns (bool) {\r\n        NFCData memory data = records[_productId];\r\n\r\n        if (keccak256(abi.encodePacked(data.passcode)) == keccak256(abi.encodePacked(_passcode))) {\r\n            emit NFCScanned(_productId, _passcode, true);\r\n            return true;\r\n        } else {\r\n            emit NFCScanned(_productId, _passcode, false);\r\n            return false;\r\n        }\r\n    }\r\n}\r\n",
  "sourcePath": "D:\\sem6\\srp\\back\\contracts\\NFCVerification.sol",
  "compiler": {
    "name": "solc",
    "version": "0.5.16+commit.9c3226ce.Emscripten.clang"
  },
  "schemaVersion": "3.4.16",
  "updatedAt": "2025-04-03T11:12:21.503Z",
  "networkType": "ethereum",
  "devdoc": {
    "methods": {}
  },
  "userdoc": {
    "methods": {}
  }
}